:100000000C9434000C9451000C9451000C94510049
:100010000C9451000C9451000C9451000C9451001C
:100020000C9451000C9451000C9451000C9451000C
:100030000C9451000C9451000C94B7000C94510096
:100040000C9451000C9451000C94C4050C94510074
:100050000C9451000C9451000C9451000C945100DC
:100060000C9451000C94510011241FBECFEFD8E026
:10007000DEBFCDBF11E0A0E0B1E0E6EFFCE102C0E1
:1000800005900D92AE37B107D9F722E0AEE7B1E0A7
:1000900001C01D92AB30B207E1F70E94A5070C9496
:1000A000790E0C940000CF93DF93CDB7DEB784E2D6
:1000B00090E0FC01208184E290E02062FC0120833A
:1000C00085E290E0FC01208185E290E02F7DFC013B
:1000D00020830000DF91CF910895CF93DF93CDB7B8
:1000E000DEB785E290E0FC018081882F90E080728D
:1000F0009927892B51F085E290E0FC01208185E26F
:1001000090E02F7DFC01208309C085E290E0FC0196
:10011000208185E290E02062FC0120830000DF91D5
:10012000CF910895CF93DF930F92CDB7DEB7898338
:100130008981882349F085E290E0FC01208185E2F5
:1001400090E02062FC012083998181E08927882347
:1001500049F085E290E0FC01208185E290E02F7D6E
:10016000FC01208300000F90DF91CF9108951F9232
:100170000F920FB60F9211248F939F93AF93BF935B
:10018000CF93DF93CDB7DEB780917E0190917F0151
:10019000A0918001B09181010196A11DB11D8093B4
:1001A0007E0190937F01A0938001B09381010000B4
:1001B000DF91CF91BF91AF919F918F910F900FBE23
:1001C0000F901F901895CF93DF93CDB7DEB784E4DF
:1001D00090E0FC01208184E490E02260FC01208317
:1001E00085E490E0FC01208185E490E02360FC013F
:1001F00020838EE690E0FC0120818EE690E0226074
:10020000FC01208387E490E029EFFC0120830000BB
:10021000DF91CF910895CF93DF93CDB7DEB784E41C
:1002200090E0FC01208184E490E02D7FFC0120839C
:100230008EE690E0FC0120818EE690E02D7FFC01AF
:1002400020830000DF91CF910895CF93DF93CDB746
:10025000DEB728970FB6F894DEBF0FBECDBF198268
:100260001A821B821C828EE690E0FC0120818EE6C1
:1002700090E02D7FFC01208380917E0190917F0191
:10028000A0918001B091810189839A83AB83BC8363
:100290008EE690E0FC0120818EE690E02260FC0179
:1002A000208389819A81AB81BC818D839E83AF83BA
:1002B000B8876D817E818F81988528960FB6F894D6
:1002C000DEBF0FBECDBFDF91CF910895CF92DF92F9
:1002D000EF92FF92CF93DF93CDB7DEB760970FB663
:1002E000F894DEBF0FBECDBF6D837E838F8398876A
:1002F00019821A821B821C820E9425016D877E87CB
:100300008F87988B8D859E85AF85B88989839A83E1
:10031000AB83BC83000049815A816B817C818D81D4
:100320009E81AF81B8856A017B01C80ED91EEA1E85
:10033000FB1E0E94250169877A878B879C878985A8
:100340009A85AB85BC858C159D05AE05BF0518F358
:100350000000000060960FB6F894DEBF0FBECDBF60
:10036000DF91CF91FF90EF90DF90CF900895CF93E2
:10037000DF93CDB7DEB70000DF91CF910895CF9323
:10038000DF93CDB7DEB784E290E0FC01208184E208
:1003900090E02260FC0120838AE290E0FC01208151
:1003A0008AE290E02062FC0120838BE290E0FC0175
:1003B00020818BE290E02062FC01208381E890E0C4
:1003C000FC01208181E890E02B60FC01208380E823
:1003D00090E020E4FC0120830000DF91CF9108959C
:1003E000CF93DF930F92CDB7DEB7898389818823BE
:1003F00099F081E890E0FC01208181E890E028609C
:10040000FC01208380E890E0FC01208180E890E0FE
:100410002064FC01208312C081E890E0FC0120816F
:1004200081E890E0277FFC01208380E890E0FC01D8
:10043000208180E890E02F7BFC01208300000F905A
:10044000DF91CF9108950F931F93CF93DF93CDB793
:10045000DEB728970FB6F894DEBF0FBECDBF9C83E2
:100460008B831A8219828B819C818C0120E030E081
:1004700080E990EDA3E0B0E08D839E83AF83B887E1
:100480006D817E818F819885A90198010E944C0B16
:10049000DA01C9019A83898384E890E0DC0111962E
:1004A0001C921E9288E890E029813A81FC013183F8
:1004B0002083000028960FB6F894DEBF0FBECDBF94
:1004C000DF91CF911F910F910895CF93DF93CDB717
:1004D000DEB788EB90E02CE0FC01208389EB90E014
:1004E000FC0110828CEB90E024E0FC0120830000F2
:1004F000DF91CF910895CF93DF93CDB7DEB70000A2
:100500008CEB90E0FC0180818823D4F70000000090
:10051000DF91CF910895CF93DF93CDB7DEB78CEB0A
:1005200090E024EAFC0120830E947B0289EB90E0AA
:10053000FC018081882F90E0887F992721E008972F
:1005400009F420E0822FDF91CF910895CF93DF93BC
:10055000CDB7DEB78CEB90E024EAFC0120830E944B
:100560007B0289EB90E0FC018081882F90E0887FFE
:10057000992721E0409709F420E0822FDF91CF9165
:100580000895CF93DF93CDB7DEB78CEB90E024E9ED
:10059000FC0120830000DF91CF910895CF93DF937A
:1005A0000F92CDB7DEB789838BEB90E02981220FC4
:1005B000FC0120838CEB90E024E8FC0120830E9466
:1005C0007B0289EB90E0FC018081882F90E0887F9E
:1005D000992721E0489709F420E0822F0F90DF91BE
:1005E000CF910895CF93DF930F92CDB7DEB7898374
:1005F0008981882F90E0880F991F282F21608BEB2D
:1006000090E0FC0120838CEB90E024E8FC01208347
:100610000E947B0289EB90E0FC018081882F90E0B2
:10062000887F992721E08034910509F420E0822F0A
:100630000F90DF91CF910895CF93DF930F92CDB7B5
:10064000DEB789838BEB90E02981FC0120838CEB62
:1006500090E024E8FC0120830E947B0289EB90E07B
:10066000FC018081882F90E0887F992721E088977E
:1006700009F420E0822F0F90DF91CF910895CF935E
:10068000DF9300D000D000D0CDB7DEB79C838B8342
:100690007E836D838D819E819A83898312C08B8135
:1006A0009C819C012F5F3F4F3C832B83FC01808109
:1006B0000E941C03882351F489819A8101979A83AF
:1006C000898389819A81892B51F701C000002D818E
:1006D0003E8189819A81A901481B590BCA0126963E
:1006E0000FB6F894DEBF0FBECDBFDF91CF91089556
:1006F000CF93DF9300D0CDB7DEB79A8389838CEB9D
:1007000090E024ECFC0120830E947B028BEB90E0C4
:10071000FC01208189819A81FC01208389EB90E092
:10072000FC018081882F90E0887F992721E0803527
:10073000910509F420E0822F0F900F90DF91CF9167
:100740000895CF93DF9300D000D000D0CDB7DEB7AF
:100750009C838B837E836D838D819E819A83898325
:1007600010C08B819C819C012F5F3F4F3C832B836A
:100770000E947803882351F489819A8101979A8392
:10078000898389819A81892B61F701C000002D81BD
:100790003E8189819A81A901481B590BCA0126967D
:1007A0000FB6F894DEBF0FBECDBFDF91CF91089595
:1007B000CF93DF9300D0CDB7DEB79A8389838CEBDC
:1007C00090E024E8FC0120830E947B028BEB90E008
:1007D000FC01208189819A81FC01208389EB90E0D2
:1007E000FC018081882F90E0887F992721E088355F
:1007F000910509F420E0822F0F900F90DF91CF91A7
:100800000895CF93DF9300D000D000D0CDB7DEB7EE
:100810009C838B837E836D838D819E819A83898364
:1008200010C08B819C819C012F5F3F4F3C832B83A9
:100830000E94D803882351F489819A8101979A8371
:10084000898389819A81892B61F701C000002D81FC
:100850003E8189819A81A901481B590BCA012696BC
:100860000FB6F894DEBF0FBECDBFDF91CF910895D4
:10087000CF93DF9300D000D00F92CDB7DEB789833E
:100880007B836A835D834C830E948B02882311F0F3
:1008900081E01DC089810E94CE02882321F00E9440
:1008A000C10281E014C02C813D818A819B81B90104
:1008B0000E943F039C018C819D818217930721F048
:1008C0000E94C10281E003C00E94C10280E00F903B
:1008D0000F900F900F900F90DF91CF910895CF93CD
:1008E000DF9300D000D00F92CDB7DEB789837B8332
:1008F0006A835D834C830E948B02882311F081E020
:1009000038C089810E94F202882321F00E94C1022E
:1009100081E02FC08C819D810297A8F08C819D8100
:100920009C01215031098A819B81B9010E94A10358
:100930009C018C819D8101972817390721F00E9425
:10094000C10281E016C08C819D81892B79F08C8158
:100950009D8101972A813B81820F931F0E94D803BA
:10096000882321F00E94C10281E003C00E94C102DD
:1009700080E00F900F900F900F900F90DF91CF912C
:100980000895CF93DF9300D000D000D0CDB7DEB76D
:1009900089836A835C834B833E832D830E948B0211
:1009A000882311F081E026C089810E94CE0288232D
:1009B00021F00E94C10281E01DC08A810E941C03B7
:1009C000882321F00E94C10281E014C02D813E8164
:1009D0008B819C81B9010E943F039C018D819E8186
:1009E0008217930721F00E94C10281E003C00E9498
:1009F000C10280E026960FB6F894DEBF0FBECDBFD1
:100A0000DF91CF910895CF93DF9300D000D000D035
:100A1000CDB7DEB789836A835C834B833E832D83A6
:100A20000E948B02882311F081E050C089810E94CE
:100A3000CE02882321F00E94C10281E047C08A8152
:100A40000E941C03882321F00E94C10281E03EC065
:100A50000E94A602882311F081E038C089810E949B
:100A6000F202882321F00E94C10281E02FC08D8113
:100A70009E810297A8F08D819E819C0121503109B1
:100A80008B819C81B9010E94A1039C018D819E8173
:100A900001972817390721F00E94C10281E016C092
:100AA0008D819E81892B79F08D819E8101972B818B
:100AB0003C81820F931F0E94D803882321F00E945B
:100AC000C10281E003C00E94C10280E026960FB6F9
:100AD000F894DEBF0FBECDBFDF91CF910895CF93C5
:100AE000DF9300D00F92CDB7DEB789837B836A8313
:100AF00081EC90E0FC01208181EC90E02860FC0119
:100B0000208386EC90E02981FC012083000080ECAA
:100B100090E0FC018081882F90E080729927892BDA
:100B2000B1F381EC90E0FC01208181EC90E0277F23
:100B3000FC01208380E090E00F900F900F90DF91F8
:100B4000CF910895CF93DF93CDB7DEB781EC90E0DE
:100B5000FC01208181EC90E02F77FC0120830000D4
:100B6000DF91CF910895CF93DF93CDB7DEB781ECBE
:100B700090E0FC01208181EC90E02068FC01208362
:100B80000000DF91CF9108951F920F920FB60F9240
:100B900011242F933F934F935F936F937F938F9382
:100BA0009F93AF93BF93EF93FF93CF93DF93CDB713
:100BB000DEB726EC30E08091C401882F90E0F90187
:100BC00020818C579E4FFC0120838091C401882F87
:100BD00090E08C579E4FFC0180818A3041F40E9446
:100BE000A20581E090E0909383018093820180913F
:100BF000C4018F3330F48091C4018F5F8093C401AE
:100C000008C00E94A20581E090E090938301809348
:100C100082010000DF91CF91FF91EF91BF91AF91E1
:100C20009F918F917F916F915F914F913F912F9104
:100C30000F900FBE0F901F901895CF93DF930F92D8
:100C4000CDB7DEB7898382EC90E0FC01208182EC95
:100C500090E02660FC01208325EC30E085EC90E0FC
:100C6000F9012081FC01208384EC90E0FC012081CB
:100C700084EC90E02061FC0120838981882349F085
:100C800081EC90E0FC01208181EC90E02068FC0187
:100C9000208380E091E09093080280930702000097
:100CA0000F90DF91CF910895CF93DF930F92CDB73F
:100CB000DEB719828091820190918301892B29F0FE
:100CC0008091820190918301898389810F90DF91C6
:100CD000CF910895CF93DF9300D00F92CDB7DEB7B9
:100CE0009B838A830E94A20519828A819B81892B1A
:100CF00011F48FEF22C08091C401282F30E08A8147
:100D00009B81A90164E871E00E947B0B8091C40182
:100D1000882F90E0AC0160E070E084E891E00E94F0
:100D2000840B1092C4011092830110928201809171
:100D3000C40189830E94B30589810F900F900F90A1
:100D4000DF91CF910895CF93DF9300D0CDB7DEB779
:100D50001A8219820E945406882341F085EC91E0A2
:100D60000E946A0685EC91E09A83898389819A8141
:100D70000F900F90DF91CF910895CF93DF9300D024
:100D800000D00F92CDB7DEB79A8389837C836B83C3
:100D90004D838D81882F90E0880F991F880F991FB0
:100DA000880F991F29813A81820F931F9C018B81A3
:100DB0009C8142E050E0B9010E946E0B892B79F5CD
:100DC0008D81882F90E0880F991F880F991F880FB9
:100DD000991F29813A81820F931F9C012E5F3F4FFB
:100DE0008B819C81039644E050E0B9010E946E0B18
:100DF000892BA9F48D81882F90E0880F991F880F87
:100E0000991F880F991F29813A81820F931FFC0136
:100E1000268137818B819C8160E0F9010995000072
:100E20000F900F900F900F900F90DF91CF9108953A
:100E3000CF93DF9300D000D0CDB7DEB79B838A83FA
:100E40006C8319820BC08A819B814981BC018EE031
:100E500091E00E94BD0689818F5F898389818630F8
:100E600090F380E00F900F900F900F90DF91CF9153
:100E70000895CF93DF9300D00F92CDB7DEB79A835A
:100E800089836B838EE391E00E949F0B0E947A0816
:100E900080E00F900F900F90DF91CF910895CF9346
:100EA000DF9300D00F92CDB7DEB79A8389836B832F
:100EB0008BE491E00E949F0B0E945A0880E00F9003
:100EC0000F900F90DF91CF910895CF93DF9300D0D3
:100ED0000F92CDB7DEB79A8389836B8380E00F9042
:100EE0000F900F90DF91CF910895CF93DF9300D0B3
:100EF0000F92CDB7DEB79A8389836B8380E00F9022
:100F00000F900F90DF91CF910895CF93DF9300D092
:100F10000F92CDB7DEB79A8389836B8380E00F9001
:100F20000F900F90DF91CF910895CF93DF9300D072
:100F30000F92CDB7DEB79A8389836B8380E00F90E1
:100F40000F900F90DF91CF910895CF93DF9300D052
:100F5000CDB7DEB781E00E941D060E94E3000E942B
:100F600053000E946502789489E591E00E949F0BEE
:100F70000E94A3069A83898389819A81892BC1F370
:100F80008A818F9389818F930E948B0B0F900F9092
:100F900089819A8160E00E941807EACFCF93DF939E
:100FA00000D0CDB7DEB71A82198242E050E0CE0100
:100FB0000196BC0180E10E946F0489819A81982783
:100FC000892798279A83898389819A81292F2F934A
:100FD0008F9381E691E0892F8F9381E691E08F9343
:100FE0000E948B0B0F900F900F900F9089819A8128
:100FF0000F900F90DF91CF910895CF93DF9300D0A2
:1010000000D0CDB7DEB719821A821B821C8244E061
:1010100050E0CE010196BC0180E10E946F048B81FB
:101020009C819827892798279C838B838B819C811F
:10103000292F2F938F938FE691E0892F8F938FE63F
:1010400091E08F930E948B0B0F900F900F900F9059
:101050008B819C810F900F900F900F90DF91CF911B
:101060000895CF93DF9300D00F92CDB7DEB78B8377
:1010700089E094E99A8389838B81882329F4898183
:101080009A8190649A83898389819A819827892794
:1010900098279A83898342E050E0CE010196BC01F3
:1010A00080E10E94380480E00F900F900F90DF9154
:1010B000CF910895CF93DF9300D0CDB7DEB71A82DA
:1010C000198282E090E09A83898389819A819827A6
:1010D000892798279A83898342E050E0CE010196C0
:1010E000BC0180E10E94380480E00F900F90DF91F6
:1010F000CF910895CF93DF93CDB7DEB72D970FB67D
:10110000F894DEBF0FBECDBF2CE0CE010296FC01ED
:10111000322F11923A95E9F789E094E99B838A830B
:1011200088E090E09D838C8380E094E19F838E83B0
:1011300081EA93EC9987888780E090E69B878A878D
:1011400082E192E49D878C87198222C08981882F51
:1011500090E0880F991F9E012F5F3F4F820F931FD2
:101160000196FC01208131818981882F90E032270E
:1011700023273227880F991FAE014F5F5F4F840FDF
:10118000951F0196FC013183208389818F5F8983BC
:1011900089818630D8F2CE0102964CE050E0BC0145
:1011A00080E10E94380480E02D960FB6F894DEBFEF
:1011B0000FBECDBFDF91CF910895CF93DF9300D0C5
:1011C00000D000D0CDB7DEB79E838D8319821A82FE
:1011D0001B821C828D819E81803B9D4128F08D81E8
:1011E0009E8181339A4210F081E033C089E094ED12
:1011F0009A8389838D819E81885F92409E838D83AF
:101200008D819E8100249695879507949695879564
:101210000794982F802D9E838D838D819E81886178
:101220009C838B8389819A819827892798279A8321
:1012300089838B819C819827892798279C838B831E
:1012400044E050E0CE010196BC0180E10E943804E8
:1012500080E026960FB6F894DEBF0FBECDBFDF91BB
:10126000CF910895CF93DF93CDB7DEB72A970FB60E
:10127000F894DEBF0FBECDBF8A878A85803110F01B
:1012800081E041C089E094ED9B838A831D821C82AA
:1012900080E094E19F838E838A85882F90E0806A26
:1012A000936C99878887198222C08981882F90E062
:1012B000880F991F9E012F5F3F4F820F931F01964A
:1012C000FC01208131818981882F90E032272327FA
:1012D0003227880F991FAE014F5F5F4F840F951F14
:1012E0000196FC013183208389818F5F8983898105
:1012F0008430D8F2CE01029648E050E0BC0180E193
:101300000E94380480E02A960FB6F894DEBF0FBE24
:10131000CDBFDF91CF910895CF93DF9300D0CDB7AC
:10132000DEB70E94FD079A83898389819A81882785
:101330009E7F9A83898389819A81892F99278695AF
:101340009A83898389810F900F90DF91CF910895BF
:10135000CF93DF9300D0CDB7DEB70E94CE079A833C
:10136000898389819A818827990F881F99270F90EF
:101370000F90DF91CF910895CF93DF9300D0CDB739
:10138000DEB70E94CE079A83898389819A81892F4B
:10139000992782958F7081700F900F90DF91CF9178
:1013A0000895CF93DF9300D0CDB7DEB70E94CE076C
:1013B0009A83898389819A81892F99278695869531
:1013C00081700F900F90DF91CF910895CF93DF93AD
:1013D00000D0CDB7DEB70E94FD079A83898389814B
:1013E0009A81892F99278695869581700F900F9005
:1013F000DF91CF910895CF93DF93CDB7DEB72897D4
:101400000FB6F894DEBF0FBECDBF1C821B8224E056
:10141000CE010596FC01322F11923A95E9F7CE01E3
:10142000039646E050E0BC0180E10E946F048F818A
:10143000882F90E0382F22278885882F90E0822BF4
:10144000932B9A83898389819A8128960FB6F89481
:10145000DEBF0FBECDBFDF91CF910895CF93DF9355
:10146000CDB7DEB72A970FB6F894DEBF0FBECDBF5B
:101470001C821B8226E0CE010596FC01322F1192C0
:101480003A95E9F7CE01039648E050E0BC0180E1CF
:101490000E946F048985882F90E0382F22278A8543
:1014A000882F90E0822B932B9A83898389819A815C
:1014B0002A960FB6F894DEBF0FBECDBFDF91CF9155
:1014C0000895CF93DF93CDB7DEB72C970FB6F8947E
:1014D000DEBF0FBECDBF1C821B8228E0CE01059669
:1014E000FC01322F11923A95E9F7CE0103964AE0BA
:1014F00050E0BC0180E10E946F048B85882F90E052
:10150000382F22278C85882F90E0822B932B9A836B
:10151000898389819A812C960FB6F894DEBF0FBE1D
:10152000CDBFDF91CF910895CF93DF93CDB7DEB7D5
:101530002E970FB6F894DEBF0FBECDBF1C821B8264
:101540002AE0CE010596FC01322F11923A95E9F777
:10155000CE0103964CE050E0BC0180E10E946F0494
:101560008D85882F90E0382F22278E85882F90E058
:10157000822B932B9A83898389819A812E960FB629
:10158000F894DEBF0FBECDBFDF91CF910895CF930A
:10159000DF9300D0CDB7DEB70E94FD079A83898321
:1015A00089819A818C7099279A83898389819A810C
:1015B00096958795969587959A83898389810F90CB
:1015C0000F90DF91CF910895CF93DF9300D0CDB7E7
:1015D000DEB70E94FD079A83898389819A8183708F
:1015E00099279A83898389810F900F90DF91CF91FA
:1015F0000895CF93DF9300D000D000D00F92CDB7E5
:10160000DEB726E0CE010296FC01322F11923A9508
:10161000E9F789E094ED9B838A831D821C8280E038
:1016200094E19F838E83198222C08981882F90E064
:10163000880F991F9E012F5F3F4F820F931F0196C6
:10164000FC01208131818981882F90E03227232776
:101650003227880F991FAE014F5F5F4F840F951F90
:101660000196FC013183208389818F5F8983898181
:101670008330D8F2CE01029646E050E0BC0180E112
:101680000E94380480E027960FB6F894DEBF0FBEA4
:10169000CDBFDF91CF910895A1E21A2EAA1BBB1BEB
:1016A000FD010DC0AA1FBB1FEE1FFF1FA217B3072E
:1016B000E407F50720F0A21BB30BE40BF50B661F44
:1016C000771F881F991F1A9469F760957095809508
:1016D00090959B01AC01BD01CF010895FB01DC0198
:1016E00004C08D910190801921F441505040C8F7F9
:1016F000881B990B0895FB01DC0102C001900D923B
:1017000041505040D8F70895DC0101C06D9341501D
:101710005040E0F70895B0E0A0E0E1E9FBE00C9470
:10172000520EFE01359661917191AF0180910702D1
:10173000909108020E94CB0BE2E00C946E0E0F9386
:101740001F93CF93DF93E0910702F091080223816A
:1017500000E010E021FD0EC00FEF1FEFC801DF9188
:10176000CF911F910F9108950995892B11F00FEFDB
:101770001FEFCE01EC018991609107027091080280
:10178000DB011896ED91FC918111EECF8AE009956D
:10179000892B21F3E1CFAFE0B0E0E1EDFBE00C9469
:1017A000420E7C013B018A01DC0117961C921E92BD
:1017B000169713968C9181FFBEC19AE0292EFE01E7
:1017C00031964F01D70113969C91F30193FD8591BA
:1017D00093FF81913F01882309F444C1853239F494
:1017E00093FD859193FF81913F01853229F4B701E3
:1017F00090E00E94B40DE6CFB12C412C512CBFE1FA
:10180000B51538F08B3209F188F4803201F183325A
:1018100021F157FC3AC020ED280F2A3040F556FE42
:101820001FC0B29C200D1124B22E06C08D3291F043
:10183000803379F7689450F8F30193FD859193FF15
:1018400081913F018111DBCF20C0689451F86894E9
:1018500052F8F2CF689453F8EFCF689454F8ECCF75
:10186000429C200D1124422E689455F8E5CF8E320B
:1018700029F456FCF7C0689456F8DECF8C3619F47C
:10188000689457F8D9CF8836B9F2982F9F7D955430
:101890009330C0F08336A1F18337C1F1833509F06D
:1018A0005BC0D801CD90DD908D016B2D70E056FCB2
:1018B00002C06FEF7FEFC6010E949E0D5C0168942D
:1018C00057F80AC00C5F1F4FEFE3E983AA24A394E3
:1018D000B12C6401E89457F853FC04C04A141B046B
:1018E00009F018F5342CA114B10431F5332009F4B2
:1018F00069CFB70180E290E00E94B40D3A94F6CF30
:10190000D8018C9189830E5F1F4FE0CFF801C19001
:10191000D1908F016B2D70E056FC02C06FEF7FEF0E
:10192000C6010E94A90D5C01D5CFB70180E290E00D
:101930000E94B40D4A94D2CFF60157FC859157FE10
:1019400081916F01B70190E00E94B40D31103A947B
:10195000B1E0AB1AB108C7CF843619F0893609F067
:1019600071C0F80157FE67C06191719181919191A9
:101970008F01E52DEF76DE2E97FF09C090958095BB
:10198000709561957F4F8F4F9F4F6894D7F82AE0ED
:1019900030E0A4010E94E40DC82EC818AC2C5D2CC8
:1019A000D6FE0CC0E89450F8CB1440F4D4FE05C029
:1019B000D2FC03C05D2D5E7E552EAB2C54FE93C031
:1019C000FE01EC0DF11D8081803309F085C0652D8D
:1019D000697E562E752D7870372E53FC93C050FEBD
:1019E0008DC0BC2CA41410F4B40CBA1854FE90C0D2
:1019F000B70180E390E00E94B40D52FE07C088E773
:101A000051FC88E590E0B7010E94B40DCB1408F4B6
:101A10008BC0CA94D12C8FEFC81AD80AC80CD91C15
:101A2000D6018E916D01B70190E00E94B40D8C1427
:101A30009D04B1F75BCF61917191072E000C880B6B
:101A4000990B96CFD52CE894D4F82AE0853729F164
:101A5000F52DF97FDF2E8037A1F058F48835A1F0FD
:101A60008F36D1F0F701868197812F96E2E10C94B1
:101A70005E0E8837B9F7D4FE02C06894D2F820E130
:101A80000CC06894D4F8F7CF54FE03C02F2F266003
:101A9000D22E20E132E002C028E030E0F801D7FE8B
:101AA00015C041915191619171914C875D876E870D
:101AB0007F878F01A4016C857D858E859F850E941F
:101AC000E40DC82EC818E894D7F868CF8191919199
:101AD000AC0170E060E0E9CF52FC02C0A3947ACF81
:101AE000A394A39477CF852D867809F473CFF6CF8E
:101AF000B70180E290E00E94B40DA394A414C0F357
:101B0000312C74CF342C3A18A41408F46FCFF8CFCA
:101B1000852D867809F47ACF8BE251FE80E257FC5E
:101B20008DE2B70190E070CFB70180E390E00E94B2
:101B3000B40DBA946BCF8FEF9FEF97CFFC01059058
:101B4000615070400110D8F7809590958E0F9F1FBF
:101B50000895FC016150704001900110D8F7809504
:101B600090958E0F9F1F08950F931F93CF93DF9330
:101B7000182F092FEB018B8181FD09C01FEF0FEF9B
:101B8000812F902FDF91CF911F910F91089582FFA8
:101B900014C02E813F818C819D81281739073CF428
:101BA000E881F981CF0101969983888310838E8122
:101BB0009F8101969F838E83E3CFE885F985812FEE
:101BC0000995892BA1F3DACFFA01AA27283051F120
:101BD000203181F1E8946F936E7F6E5F7F4F8F4F5E
:101BE0009F4FAF4FB1E03ED0B4E03CD0670F781FBD
:101BF000891F9A1FA11D680F791F8A1F911DA11DA2
:101C00006A0F711D811D911DA11D20D009F46894DA
:101C10003F912AE0269F11243019305D3193DEF682
:101C2000CF010895462F4770405D4193B3E00FD038
:101C3000C9F7F6CF462F4F70405D4A3318F0495D23
:101C400031FD4052419302D0A9F7EACFB4E0A69506
:101C50009795879577956795BA95C9F70097610528
:101C6000710508959B01AC010A2E0694579547957E
:101C700037952795BA95C9F7620F731F841F951F73
:101C8000A01D08952F923F924F925F926F927F9284
:101C90008F929F92AF92BF92CF92DF92EF92FF927C
:101CA0000F931F93CF93DF93CDB7DEB7CA1BDB0B28
:101CB0000FB6F894DEBF0FBECDBF09942A883988CD
:101CC00048885F846E847D848C849B84AA84B984D4
:101CD000C884DF80EE80FD800C811B81AA81B981E0
:101CE000CE0FD11D0FB6F894DEBF0FBECDBFED01F4
:061CF0000895F894FFCFF7
:101CF60000000002000000006F0500000000444FD5
:101D0600494E49543907444F525345544F0753548B
:101D1600564F4C4D850753544652455175075354FB
:101D26004D555445650747545253534995075244F8
:101D360041353830376D496E697400524441353843
:101D460030376D52657365740053746172746564DF
:101D560000307830413A203078253034780A003027
:0E1D66007830423A203078253034780A000078
:00000001FF
